:020000040000FA
:02000000FE2BD5
:10044000F100232A232A831603131808F000013031
:100450000310F00CFF3E031D282A701C302A312A9D
:10046000232A322A71088312031399000800EF30FF
:10047000FB007B08831603138605003083120313E9
:10048000A9000030A8002530A7008030A600102366
:100490008230FC00DD30FB00FB0B4C2AFC0B4C2AAD
:1004A000512A522A1030FB007B0883120313860660
:1004B000053020220630FD001330FC00AD30FB007B
:1004C000FB0B602AFC0B602AFD0B602A672A522A6C
:1004D000522A002883120313A101F31F702A712AE4
:1004E0007E2AF009F109F209F309F00A0319F10A69
:1004F0000319F20A0319F30AA101A10AF71F812ABD
:10050000822A922AF409F509F609F709F40A03196F
:10051000F50A0319F60A0319F70A0130F8007808FA
:10052000A106922A0030A5000030A4000030A300EC
:100530000030A20073087204710470040319A12A28
:10054000A22AF52AA001A00AB32A0130F80003105C
:10055000F00DF10DF20DF30DF80BA72A0130F800A4
:100560007808A007B32AF31FB62AB72AA52AB92A02
:10057000B92A0130F8000310A20DA30DA40DA50D9A
:10058000F80BBB2A73087702031DD02A7208760283
:10059000031DD02A71087502031DD02A7008740249
:1005A000031CD32AD42AE42A7008F4027108031C1D
:1005B000710FF5027208031C720FF6027308031C18
:1005C000730FF7022214E42A01300310F30CF20C2B
:1005D000F10CF00CFF3E031DE52A0130A002031DC3
:1005E000F22AF32AB92AF52AF52A21080319F92A49
:1005F000FA2A062BA209A309A409A509A20A03192C
:10060000A30A0319A40A0319A50A062B2508F30057
:100610002408F2002308F1002208F0000F2B080044
:10062000831203132608AA002708AB002808AC0091
:100630002908AD0006300310AA0DAB0DAC0DAD0DB1
:10064000FF3E031D1B2B2D08F3002C08F2002B0886
:10065000F1002A08F0000030AE000930AF003D3054
:10066000B0000030B1002608B2002708B300280807
:10067000B4002908B50006300310B20DB30DB40D57
:10068000B50DFF3E031D3C2BB209B309B409B509F2
:10069000B20A0319B30A0319B40A0319B50A3208D6
:1006A000AE0733080318330F562B572BAF07340808
:1006B0000318340F5C2B5D2BB00735080318350A7F
:1006C000B1073108F7003008F6002F08F5002E08B2
:1006D000F4006A227108FA007008F90001307A0209
:1006E000003003197902031C762B772BD92B831248
:1006F00003132608AA002708AB002808AC00290825
:10070000AD0004300310AA0DAB0DAC0DAD0DFF3ED6
:10071000031D822B2D08F3002C08F2002B08F1009A
:100720002A08F0000030AE000930AF003D30B000C4
:100730000030B1002608B2002708B3002808B40032
:100740002908B50004300310B20DB30DB40DB50D7A
:10075000FF3E031DA32BB209B309B409B509B20AC0
:100760000319B30A0319B40A0319B50A3208AE070C
:1007700033080318330FBD2BBE2BAF073408031803
:10078000340FC32BC42BB00735080318350AB10743
:100790003108F7003008F6002F08F5002E08F400A5
:1007A0006A227108FA007008F900831603131815FD
:1007B000D92B01307A020030031979020318E12B9A
:1007C000E22BFD2B7908831603139900EF30831277
:1007D0000313AA002A088316031398058312031330
:1007E000981783160313061586148312031318161D
:1007F000831603139816FD2BFD2B08008301372A5F
:02400E0038FF79
:00000001FF
