:020000040000FA
:060000000A128A110C280F
:10000800FE00030EF0000A08F1000A128A11482ABD
:100018000A128A110F2883010A128A11A829831249
:1000280003132608AA002708AB002808AC002908F3
:10003800AD0006300310AA0DAB0DAC0DAD0DFF3EA3
:10004800031D1E282D08F5002C08F4002B08F300CA
:100058002A08F2000030AE001230AF007A30B0004B
:100068000030B1002608B2002708B3002808B40001
:100078002908B50006300310B20DB30DB40DB50D47
:10008800FF3E031D3F28B209B309B409B509B20AF6
:100098000319B30A0319B40A0319B50A3208AE07DB
:1000A80033080318330F59285A28AF0734080318A0
:1000B800340F5F286028B00735080318350AB107E0
:1000C8003108F9003008F8002F08F7002E08F6006C
:1000D8000A128A1102210A128A1173088312031361
:1000E800B7007208B6000130370200300319360233
:1000F800031C7F288028E6282608AA002708AB00CA
:100108002808AC002908AD0004300310AA0DAB0D77
:10011800AC0DAD0DFF3E031D89282D08F5002C08F8
:10012800F4002B08F3002A08F2000030AE00123069
:10013800AF007A30B0000030B1002608B2002708BE
:10014800B3002808B4002908B50004300310B20D24
:10015800B30DB40DB50DFF3E031DAA28B209B309AE
:10016800B409B509B20A0319B30A0319B40A031981
:10017800B50A3208AE0733080318330FC428C52858
:10018800AF0734080318340FCA28CB28B00735083E
:100198000318350AB1073108F9003008F8002F08AC
:1001A800F7002E08F6000A128A1102210A128A1193
:1001B800730883120313B7007208B600831603137B
:1001C8001815E62801308312370200300319360269
:1001D8000318EF28F028012936088316031399001D
:1001E80018128312031398171816831603139816F8
:1001F8008C168B170B17012901290800831203138A
:10020800A101F51F082909291629F209F309F4099A
:10021800F509F20A0319F30A0319F40A0319F50A8E
:10022800A101A10AF91F19291A292A29F609F7098A
:10023800F809F909F60A0319F70A0319F80A03195C
:10024800F90A0130FA007A08A1062A290030A50027
:100258000030A4000030A3000030A2007508740428
:1002680073047204031939293A298D29A001A00AB7
:100278004B290130FA000310F20DF30DF40DF50DC2
:10028800FA0B3F290130FA007A08A0074B29F51F1D
:100298004E294F293D29512951290130FA000310CF
:1002A800A20DA30DA40DA50DFA0B5329750879020B
:1002B800031D682974087802031D682973087702EA
:1002C800031D682972087602031C6B296C297C2996
:1002D8007208F6027308031C730FF7027408031CF4
:1002E800740FF8027508031C750FF90222147C2993
:1002F80001300310F50CF40CF30CF20CFF3E031D57
:100308007D290130A002031D8A298B2951298D29B5
:100318008D2921080319912992299E29A209A30947
:10032800A409A509A20A0319A30A0319A40A03190F
:10033800A50A9E292508F5002408F4002308F300DF
:100348002208F200A7290800831603130F178F1637
:100358000F16003083120313A9000030A8002530BF
:10036800A7008030A6000A128A1113200A128A11E7
:10037800831603138801831203138801C3290130EC
:100388000A128A11F0210A128A110B308312031300
:10039800BE002630BD005D30BC00BC0BD129BD0BB2
:1003A800D129BE0BD12913300A128A11F0210A1261
:1003B8008A110B3083120313BE002630BD005D3056
:1003C800BC00BC0BE529BD0BE529BE0BE529C329FB
:1003D800C3290A128A110C28F500F301F401082A2E
:1003E8007308750784000A128A1117220A128A11E3
:1003F8000A128A113A220A128A110130F3070318E5
:10040800F40A0030F407082A7308750784000A12F2
:100418008A1117220A128A11003A031D142A152A72
:10042800F429162A080002308A000408840A820780
:1004380000345734683479342034683465346C3483
:100448006C346F34203474346834653472346534F1
:100458000D340A34003441347934793420344C343E
:100468006D3461346F340D340A340034F2003C2AA0
:1004780083160313981C412A422A3C2A432A7208ED
:100488008312031399000800831203131A088800C3
:0E04980071088A00700E8300FE0E7E0E0900B1
:02400E00D4EFED
:00000001FF
