:020000040000FA
:100000000A128A11FC2F00308A000408840A820731
:1000100000345734683479342034683465346C34AF
:100020006C346F342034743468346534723465341D
:100030000A34003441347934793420344C346D340A
:0800400061346F340A3400340E
:100BD600F000ED2D83160313981CF22DF32DED2D49
:100BE600F42D70088312031399000800F300F10135
:100BF600F201112E7108730784000A128A1103206C
:100C06000A128A110A128A11EB250A128A11013078
:100C1600F1070318F20A0030F207112E7108730764
:100C260084000A128A1103200A128A11003A031D4F
:100C36001D2E1E2EFD2D1F2E0800831603130F17C3
:100C46008F160F16003083120313A9000030A80078
:100C56002530A7008030A6000A128A1110270A1232
:100C66008A11831603138801382EFF30831203136B
:100C7600880001300A128A11F9250A128A110B30EE
:100C8600FD002630FC005D30FB00FB0B482EFC0B04
:100C9600482EFD0B482E4F2E831203138801123067
:100CA6000A128A11F9250A128A110B30FD00263024
:100CB600FC005D30FB00FB0B5E2EFC0B5E2EFD0B7D
:100CC6005E2E652E382E382E0A128A1100288312BF
:100CD6000313A101F31F702E712E7E2EF009F10968
:100CE600F209F309F00A0319F10A0319F20A0319C2
:100CF600F30AA101A10AF71F812E822E922EF40972
:100D0600F509F609F709F40A0319F50A0319F60AAB
:100D16000319F70A0130F8007808A106922E003070
:100D2600A5000030A4000030A3000030A200730824
:100D36007204710470040319A12EA22EF52EA001CF
:100D4600A00AB32E0130F8000310F00DF10DF20DDC
:100D5600F30DF80BA72E0130F8007808A007B32E84
:100D6600F31FB62EB72EA52EB92EB92E0130F800D8
:100D76000310A20DA30DA40DA50DF80BBB2E730831
:100D86007702031DD02E72087602031DD02E71083D
:100D96007502031DD02E70087402031CD32ED42EA8
:100DA600E42E7008F4027108031C710FF502720834
:100DB600031C720FF6027308031C730FF70222144A
:100DC600E42E01300310F30CF20CF10CF00CFF3E94
:100DD600031DE52E0130A002031DF22EF32EB92EBF
:100DE600F52EF52E21080319F92EFA2E062FA20943
:100DF600A309A409A509A20A0319A30A0319A40AA7
:100E06000319A50A062F2508F3002408F200230873
:100E1600F1002208F0000F2F0800831203132608A2
:100E2600AA002708AB002808AC002908AD00063048
:100E36000310AA0DAB0DAC0DAD0DFF3E031D1B2F10
:100E46002D08F3002C08F2002B08F1002A08F00008
:100E56000030AE001230AF007A30B0000030B10082
:100E66002608B2002708B3002808B4002908B500F0
:100E760006300310B20DB30DB40DB50DFF3E031DC4
:100E86003C2FB209B309B409B509B20A0319B30A6A
:100E96000319B40A0319B50A3208AE073308031852
:100EA600330F562F572FAF0734080318340F5C2F14
:100EB6005D2FB00735080318350AB1073108F7006A
:100EC6003008F6002F08F5002E08F4000A128A11E1
:100ED6006A260A128A117108FA007008F9000130B0
:100EE6007A02003003197902031C7A2F7B2FE12F37
:100EF600831203132608AA002708AB002808AC00B3
:100F06002908AD0004300310AA0DAB0DAC0DAD0DD4
:100F1600FF3E031D862F2D08F3002C08F2002B0838
:100F2600F1002A08F0000030AE001230AF007A302F
:100F3600B0000030B1002608B2002708B300280828
:100F4600B4002908B50004300310B20DB30DB40D7A
:100F5600B50DFF3E031DA72FB209B309B409B509A4
:100F6600B20A0319B30A0319B40A0319B50A3208F7
:100F7600AE0733080318330FC12FC22FAF0734084B
:100F86000318340FC72FC82FB00735080318350AC2
:100F9600B1073108F7003008F6002F08F5002E08D3
:100FA600F4000A128A116A260A128A117108FA00D6
:100FB6007008F900831603131815E12F01307A0221
:100FC6000030031979020318E92FEA2FFB2F79085D
:100FD6008316031399001812831203139817181611
:100FE600831603138C160B178B179816FB2FFB2FE4
:0A0FF600080083010A128A11202E60
:02400E00D4EFED
:00000001FF
